S0170000576561746865725F53746174696F6E2E73726563FC
S11300000C9468000C9485000C9485000C94850075
S11300100C9485000C9485000C9485000C94850048
S11300200C9485000C9485000C9485000C94850038
S11300300C9485000C9485000C9485000C94850028
S11300400C9485000C9485000C9485000C94850018
S11300500C9485000C9485000C9485000C94850008
S11300600C9485000C9485000C9485000C948500F8
S11300700C9485000C9485000C9485000C948500E8
S11300800C9485000C9485000C9485000C948500D8
S11300900C9485000C9485000C9485000C948500C8
S11300A00C9485000C9485000C9485000C948500B8
S11300B00C9485001B5B6D001B5B3F323568001B95
S11300C05B3F32356C001B5B3B48001B5B324A00D4
S11300D011241FBECFEFD8E0DEBFCDBF12E0A0E0F9
S11300E0B1E0ECE6FBE002C005900D92AC3DB10737
S11300F0D9F722E0ACEDB2E001C01D92AB3EB207ED
S1130100E1F70E94CB010C94B4050C940000EAE7DB
S1130110F0E0808180688083808187608083ECE761
S1130120F0E08081806480830895ECE7F0E09081C2
S1130130987F892B8083EAE7F0E080818064808364
S113014080917A0086FDFCCF8091780090917900AF
S113015008958AB180648AB98BB18F7B8BB92FEFF4
S113016089EF90E0215080409040E1F700C000000A
S11301708BB180648BB908958AB18F7B8AB94E990B
S1130180FECF4E9BFECF4E99FECF089520E030E087
S113019080E011C04E9BFECF90EA9A95F1F74E9BFA
S11301A005C090E0880F991F816001C0880F4E99A7
S11301B0FECF2F5F3F4F2830310564F30895F89444
S11301C0F999FECF92BD81BD8FB381608FBB80B59D
S11301D00895CF93DF93EC0161E089E00E94B203BC
S11301E040E067E081E00E94730381E091E00E94B7
S11301F0E10361E08AE00E94B2038FE491E00E948F
S1130200E10361E08BE00E94B20380E891E00E9488
S1130210E10361E08CE00E94B2038EEC91E00E9465
S1130220E1038091000161E0845F0E94B203809148
S113023000016AE090E00E94EE0365E08CE00E9419
S1130240B20340E064E081E00E94730380ED91E03A
S11302500E94E1038091000165E0845F0E94B20383
S1130260CC0FDD1FCC0FDD1FCC0FDD1FCE010E9494
S1130270DF006AE090E00E94EE038EE20E94DA035F
S1130280CE0101960E94DF006AE090E00E94EE0336
S113029064E18CE00E94B20340E061E081E00E94EE
S11302A073038DED91E00E94E1038091000164E10C
S11302B0845F0E94B203CE0102960E94DF006AE0CE
S11302C090E00E94EE038EE20E94DA03CE010396D0
S11302D00E94DF006AE090E00E94EE0368E28CE096
S11302E00E94B20340E065E081E00E9473038DEE5A
S11302F091E00E94E1038091000168E2845F0E9422
S1130300B203CE0104960E94DF006AE090E00E94EE
S1130310EE038EEF91E00E94E103CE0105960E9468
S1130320DF006AE090E00E94EE036CE38CE00E9440
S1130330B20340E062E081E00E94730380E092E057
S11303400E94E103809100016CE3845F0E94B20388
S1130350CE0106960E94DF006AE090E00E94EE0360
S11303608EEF91E00E94E103CE0107960E94DF0028
S11303706AE090E00E94EE03809100018F5F809319
S113038000018A3029F481E0809300010E94600317
S1130390DF91CF91089587E690E00E94CF030E94F9
S11303A087002FEF83ED90E3215080409040E1F7E8
S11303B000C0000080E00E94600382E192E00E949D
S11303C0E1032FEF87EA91E6215080409040E1F766
S11303D000C0000081E00E94600387B18B7F87B971
S11303E02FEF83ED90E3215080409040E1F700C06F
S11303F0000081E00E949500BC0180E090E00E9432
S1130400510420E030E040EA50E40E94B70420E0C8
S113041030E040E85AE30E94B70420E030E048ECC2
S113042052E40E94B7046B017C010E941B04DC01AE
S1130430CB0164E670E00E944C05062FA72E182F0E
S1130440B92ECEEDD2E06C838D8382E00E949500BC
S1130450BC0180E090E00E94510420E030E040EADA
S113046050E40E94B70420E030E040E85AE30E94E0
S1130470B70420E030E048EC52E40E94B7042B01BA
S11304803C010E941B04DC01CB0164E670E00E9485
S11304904C05862E272E982E392E6E838F832FEFB0
S11304A085EA9EE0215080409040E1F700C00000C2
S11304B00E94A9000E94BC000E94C6008093E7022B
S11304C00E94C6008093E6020E94C6008093E9025F
S11304D00E94C6008093EA020E94C6008093E8024C
S11304E08091EA028B838091E9028A838091E702FA
S11304F088838091E60289838091DC029091DD02F9
S11305000E94E90061E081E00E94B20340E063E000
S113051081E00E9473038BE492E00E94E103C7012F
S1130520B6010E942204DC01CB016AE00E94EE03C2
S11305308EE592E00E94E10361E082E00E94B20352
S113054085E00E949E0389E692E00E94E1036AE04E
S1130550802F9A2D0E94EE038EEF91E00E94E1031A
S11305606AE0812F9B2D0E94EE036BE182E00E94E2
S1130570B2038FE792E00E94E10361E083E00E940E
S1130580B20340E066E081E00E94730382E892E0F7
S11305900E94E103C301B2010E942204DC01CB01E9
S11305A06AE00E94EE038EE592E00E94E10361E0BE
S11305B084E00E94B20382E00E949E038AE992E0F2
S11305C00E94E1036AE0882D922D0E94EE038EEFD3
S11305D091E00E94E1036AE0892D932D0E94EE03CD
S11305E060E284E00E94B2038FE792E00E94E1039C
S11305F02091E7028091E60290E0820F911D209104
S1130600E902820F911D2091EA02820F911D20912F
S1130610E80230E08217930729F085EB92E00E940C
S1130620E103DECE61E085E00E94B20384E00E9433
S11306309E038BEB92E00E94E1038091E7026AE063
S113064090E00E94EE038EEF91E00E94E10380911E
S1130650E6026AE090E00E94EE0387EC92E00E94DA
S1130660E10361E086E00E94B20381E00E949E0300
S11306708AEC92E00E94E1038091E9026AE090E052
S11306800E94EE038EEF91E00E94E1038091EA0262
S11306906AE090E00E94EE0380EB0E94DA0389EDA9
S11306A092E00E94E1039CCE882329F08FEB90E036
S11306B00E940C04089588EB90E00E940C040895B5
S11306C0CF93C82F84EB90E00E940C048C2F0E94DF
S11306D054038BEC90E00E940C0486EC90E00E94A2
S11306E00C04CF9108951F93CF93DF93182FD62F27
S11306F0C42F8BE10E94DA038BE50E94DA0380E3C6
S1130700810F0E94DA038BE30E94DA0383E30E94E1
S1130710DA0380E38D0F0E94DA038BE30E94DA038D
S113072084E30E94DA0380E38C0F0E94DA038DE6EF
S11307300E94DA03DF91CF911F910895CF93C82FC0
S11307408BE10E94DA038BE50E94DA0383E30E94C3
S1130750DA0380E38C0F0E94DA038DE60E94DA0349
S1130760CF910895CF93DF93D82FC62F8BE10E94AA
S1130770DA038BE50E94DA036AE08D2F90E00E9491
S1130780EE038BE30E94DA036AE08C2F90E00E9470
S1130790EE0388E40E94DA03DF91CF9108959093E9
S11307A0C5008093C40088E18093C10086E08093F3
S11307B0C20008959091C00095FFFCCF8093C600BD
S11307C00895CF93DF93EC0103C021960E94DA03CE
S11307D088818111FACFDF91CF910895CF93DF9370
S11307E0CDB7DEB761970FB6F894DEBF0FBECDBFAD
S11307F0462F50E0BE016F5F7F4F0E947405CE010B
S113080001960E94E10361960FB6F894DEBF0FBE15
S1130810CDBFDF91CF910895CF93DF93FC0103C047
S11308200E94DA03FE01EF01219684918111F8CF31
S1130830DF91CF9108950E9422046894B1110C9421
S1130840B10408950E94960488F09F5798F0B92F38
S11308509927B751B0F0E1F0660F771F881F991FF1
S11308601AF0BA95C9F714C0B13091F00E94B004DF
S1130870B1E008950C94B004672F782F8827B85FEF
S113088039F0B93FCCF3869577956795B395D9F749
S11308903EF490958095709561957F4F8F4F9F4F53
S11308A00895E89409C097FB3EF49095809570955F
S11308B061957F4F8F4F9F4F9923A9F0F92F96E9A8
S11308C0BB279395F695879577956795B795F1111D
S11308D0F8CFFAF4BB0F11F460FF1BC06F5F7F4FBA
S11308E08F4F9F4F16C0882311F096E911C07723CC
S11308F021F09EE8872F762F05C0662371F096E8D5
S1130900862F70E060E02AF09A95660F771F881FA3
S1130910DAF7880F9695879597F9089557FD9058BB
S1130920440F551F59F05F3F71F04795880F97FBAF
S1130930991F61F09F3F79F0879508951216130669
S11309401406551FF2CF4695F1DF08C01616170698
S11309501806991FF1CF86957105610508940895CD
S1130960E894BB2766277727CB0197F908950E945F
S1130970CA040C943B050E942D0538F00E943405EE
S113098020F0952311F00C9424050C942A051124CD
S11309900C94B1040E948E0470F3959FC1F3950FDB
S11309A050E0551F629FF001729FBB27F00DB11DEF
S11309B0639FAA27F00DB11DAA1F649F6627B00D7F
S11309C0A11D661F829F2227B00DA11D621F739F68
S11309D0B00DA11D621F839FA00D611D221F749F76
S11309E03327A00D611D231F849F600D211D822FBD
S11309F0762F6A2F11249F5750409AF0F1F08823E4
S1130A004AF0EE0FFF1FBB1F661F771F881F915010
S1130A105040A9F79E3F510580F00C9424050C9496
S1130A20B1045F3FE4F3983ED4F3869577956795D8
S1130A30B795F795E7959F5FC1F7FE2B880F911D3A
S1130A409695879597F9089597F99F6780E870E0E0
S1130A5060E008959FEF80EC089500240A94161630
S1130A60170618060906089500240A941216130698
S1130A70140605060895092E0394000C11F4882326
S1130A8052F0BB0F40F4BF2B11F460FF04C06F5F42
S1130A907F4F8F4F9F4F089597FB072E16F40094B6
S1130AA007D077FD09D00E94600507FC05D03EF40D
S1130AB0909581959F4F0895709561957F4F089506
S1130AC0AA1BBB1B51E107C0AA1FBB1FA617B70770
S1130AD010F0A61BB70B881F991F5A95A9F780958C
S1130AE09095BC01CD0108954532510520F4423062
S1130AF010F00C947F05FB011082CB010895BB27F5
S1130B004A3031F4992322F4BDE2909581959F4FA8
S1130B100C948B05BB27FB015527AA27880F991F27
S1130B20AA1FA41710F0A41B83955051B9F7A05D18
S1130B30AA3308F0A95DA193009779F7B111B19395
S1130B401192CB010C94A405DC01FC01672F719177
S1130B507723E1F7329704C07C916D93708362919F
S10F0B60AE17BF07C8F30895F894FFCF48
S1130B6C013D3D3D3D3D3D3D3D3D3D3D3D3D3D3DE1
S1130B7C3D3D3D3D3D3D3D3D3D3D3D3D3D3D3D5280
S1130B8C4541442046524F4D20454550524F4D3D12
S1130B9C3D3D3D3D3D3D3D3D3D3D3D3D3D3D3D3D75
S1130BAC3D3D3D3D3D3D3D3D3D3D3D3D3D0A000909
S1130BBC2020202020202020202020202020202025
S1130BCC204D6561737572656D656E747320657601
S1130BDC657279203130206D696E757465732100EE
S1130BEC3D3D3D3D3D3D3D3D3D3D3D3D3D3D3D3D25
S1130BFC3D3D3D3D3D3D3D3D3D3D3D3D3D3D3D3D15
S1130C0C3D3D3D3D3D3D3D3D3D3D3D3D3D3D3D3D04
S1130C1C3D3D3D3D3D3D3D3D3D3D3D3D3D3D3D3DF4
S1130C2C3D3D3D3D3D3D3D3D3D3D3D3D0A006E0060
S1130C3C48756D6964697479205B255D0054656D34
S1130C4C7065726174757265205BB05D00524149C8
S1130C5C4E5F564F4C54414745205B565D002E0069
S1130C6C4C494748545F564F4C54414745205B56BA
S1130C7C5D00506F6D6961722077696C676F746E7B
S1130C8C6F7363692C2074656D7065726174757211
S1130C9C79206F72617A206E6174657A656E696110
S1130CAC2073776961746C613A20005241494E5F3C
S1130CBC44524F50535F41444331203D2000202087
S1130CCC202020202020200A005241494E5F44520B
S1130CDC4F50535F564F4C54414745203D200056CE
S1130CEC0A004C494748545F494E54454E534954A5
S1130CFC595F41444332203D20004C494748545FDE
S1130D0C494E54454E534954595F564F4C544147E0
S1130D1C45203D20004572726F720048756D696400
S1130D2C697479203D2000250A0054656D70657244
S10F0D3C6174757265203D2000430A00BC
S9030000FC
