:100000000C9468000C9485000C9485000C94850079
:100010000C9485000C9485000C9485000C9485004C
:100020000C9485000C9485000C9485000C941902A6
:100030000C9485000C9485000C9485000C9485002C
:100040000C9485000C9485000C9485000C9485001C
:100050000C9485000C9485000C9485000C9485000C
:100060000C9485000C9485000C9485000C948500FC
:100070000C9485000C9485000C9485000C948500EC
:100080000C9485000C9485000C9485000C948500DC
:100090000C9485000C9485000C9485000C948500CC
:1000A0000C9485000C9485000C9485000C948500BC
:1000B0000C9485001B5B6D001B5B3F323568001B99
:1000C0005B3F32356C001B5B3B48001B5B324A00D8
:1000D00011241FBECFEFD8E0DEBFCDBF12E0A0E0FD
:1000E000B1E0EEE8FCE002C005900D92AE3DB10734
:1000F000D9F722E0AEEDB2E001C01D92A13FB207F8
:10010000E1F70E943C020C9445060C940000EAE7DB
:10011000F0E0808180688083808187608083ECE765
:10012000F0E08081806480830895ECE7F0E09081C6
:10013000987F892B8083EAE7F0E080818064808368
:1001400080917A0086FDFCCF8091780090917900B3
:1001500008958AB180648AB98BB18F7B8BB92FEFF8
:1001600089EF90E0215080409040E1F700C000000E
:100170008BB180648BB908958AB18F7B8AB94E990F
:10018000FECF4E9BFECF4E99FECF089520E030E08B
:1001900080E011C04E9BFECF90EA9A95F1F74E9BFE
:1001A00005C090E0880F991F816001C0880F4E99AB
:1001B000FECF2F5F3F4F2830310564F30895F89448
:1001C000F999FECF92BD81BD60BD8FB384608FBBB6
:1001D0008FB382608FBB78940895F894F999FECF1D
:1001E00092BD81BD8FB381608FBB80B508950F93A1
:1001F0001F93CF93DF938B01FB016081EC01CC0F48
:10020000DD1FCC0FDD1FCC0FDD1FCE010E94DF00F4
:10021000F8016181CE0101960E94DF00F801628140
:10022000CE0102960E94DF00F8016381CE010396A1
:100230000E94DF00F8016481CE0104960E94DF0075
:10024000F8016581CE0105960E94DF00F801668104
:10025000CE0106960E94DF00F8016781CE01079665
:100260000E94DF00DF91CF911F910F910895CF93EE
:10027000DF93EC0161E089E00E942E0440E067E03A
:1002800081E00E94EF0381E091E00E94720461E04E
:100290008AE00E942E048FE491E00E94720461E0E3
:1002A0008BE00E942E0480E891E00E94720461E0DD
:1002B0008CE00E942E048EEC91E00E9472048091EA
:1002C000000161E0845F0E942E04809100016AE0D9
:1002D00090E00E947F0465E08CE00E942E0440E0E4
:1002E00064E081E00E94EF0380ED91E00E947204DF
:1002F0008091000165E0845F0E942E04CC0FDD1F19
:10030000CC0FDD1FCC0FDD1FCE010E94ED006AE097
:1003100090E00E947F048EE20E946B04CE01019661
:100320000E94ED006AE090E00E947F0464E18CE0AE
:100330000E942E0440E061E081E00E94EF038DED19
:1003400091E00E9472048091000164E1845F0E9448
:100350002E04CE0102960E94ED006AE090E00E9419
:100360007F048EE20E946B04CE0103960E94ED0092
:100370006AE090E00E947F0468E28CE00E942E0414
:1003800040E065E081E00E94EF038DEE91E00E9485
:1003900072048091000168E2845F0E942E04CE0105
:1003A00004960E94ED006AE090E00E947F048EEFC8
:1003B00091E00E947204CE0105960E94ED006AE071
:1003C00090E00E947F046CE38CE00E942E0440E0E9
:1003D00062E081E00E94EF0380E092E00E947204FC
:1003E000809100016CE3845F0E942E04CE0106968A
:1003F0000E94ED006AE090E00E947F048EEF91E0A1
:100400000E947204CE0107960E94ED006AE090E01F
:100410000E947F04809100018F5F809300018A30E9
:1004200029F481E0809300010E94DC03DF91CF91E9
:1004300008951F920F920FB60F9211248F939F93DE
:100440008091E0029091E10201969093E102809305
:10045000E002059751F481E090E09093DF028093F1
:10046000DE021092E1021092E0029F918F910F90B4
:100470000FBE0F901F901895F89487E690E00E94A9
:1004800060040E9487000E944B0480E00E94DC030D
:1004900082E192E00E9472042FEF87EA91E62150F8
:1004A00080409040E1F700C0000081E00E94DC0342
:1004B00084B1806284B9789481E00E949500BC0187
:1004C00080E090E00E94E20420E030E040EA50E466
:1004D0000E94480520E030E040E85AE30E944805C9
:1004E00020E030E048EC52E40E9448052B013C013A
:1004F0000E94AC04DC01CB0164E670E00E94DD05E3
:10050000A62E872EB82E992EC4EED2E06C838D8352
:1005100082E00E949500BC0180E090E00E94E2042D
:1005200020E030E040EA50E40E94480520E030E05E
:1005300040E85AE30E94480520E030E048EC52E4ED
:100540000E9448056B017C010E94AC04DC01CB01D8
:1005500064E670E00E94DD05062F372E182F292E45
:100560006E838F832FEF85EA9EE02150804090407C
:10057000E1F700C000000E94A9000E94BC000E9498
:10058000C6008093ED020E94C6008093EC020E9498
:10059000C6008093EF020E94C6008093F0020E9482
:1005A000C6008093EE028091F0028B838091EF026F
:1005B0008A838091ED0288838091EC028983F8948C
:1005C0008091DE029091DF020197A9F495B180E25B
:1005D000892785B9BE018091E2029091E3020E94D1
:1005E000F7008091E2029091E3020E94370110929D
:1005F000DF021092DE027894F89461E081E00E94BC
:100600002E0440E063E081E00E94EF038BE492E07F
:100610000E947204C301B2010E94B304DC01CB0149
:100620006AE00E947F048EE592E00E94720461E01D
:1006300082E00E942E0485E00E941A0489E692E07E
:100640000E9472046AE08A2D982D0E947F048EEF2A
:1006500091E00E9472046AE08B2D992D0E947F0424
:100660006BE182E00E942E048FE792E00E94720408
:1006700061E083E00E942E0440E066E081E00E9499
:10068000EF0382E892E00E947204C701B6010E9463
:10069000B304DC01CB016AE00E947F048EE592E0A6
:1006A0000E94720461E084E00E942E0482E00E94B5
:1006B0001A048AE992E00E9472046AE0802F932D66
:1006C0000E947F048EEF91E00E9472046AE0812F05
:1006D000922D0E947F0460E284E00E942E048FE746
:1006E00092E00E9472042091ED028091EC0290E071
:1006F000820F911D2091EF02820F911D2091F00237
:10070000820F911D2091EE0230E08217930729F0AD
:1007100085EB92E00E94720441C061E085E00E9496
:100720002E0484E00E941A048BEB92E00E94720473
:100730008091ED026AE090E00E947F048EEF91E0EC
:100740000E9472048091EC026AE090E00E947F04B3
:1007500087EC92E00E94720461E086E00E942E0421
:1007600081E00E941A048AEC92E00E947204809157
:10077000EF026AE090E00E947F048EEF91E00E9419
:1007800072048091F0026AE090E00E947F0480EBA6
:100790000E946B0489ED92E00E94720478948CCEE2
:1007A000882329F08FEB90E00E949D04089588EB48
:1007B00090E00E949D040895CF93C82F84EB90E0B1
:1007C0000E949D048C2F0E94D0038BEC90E00E942D
:1007D0009D0486EC90E00E949D04CF9108951F93A4
:1007E000CF93DF93182FD62FC42F8BE10E946B0479
:1007F0008BE50E946B0480E3810F0E946B048BE306
:100800000E946B0483E30E946B0480E38D0F0E94BF
:100810006B048BE30E946B0484E30E946B0480E30F
:100820008C0F0E946B048DE60E946B04DF91CF91C8
:100830001F910895CF93C82F8BE10E946B048BE525
:100840000E946B0483E30E946B0480E38C0F0E9480
:100850006B048DE60E946B04CF910895CF93DF93D4
:10086000D82FC62F8BE10E946B048BE50E946B048E
:100870006AE08D2F90E00E947F048BE30E946B045E
:100880006AE08C2F90E00E947F0488E40E946B0451
:10089000DF91CF910895E1E8F0E080818560808369
:1008A00080818860808389E09DE3909389008093B4
:1008B0008800EFE6F0E0808182608083789408957C
:1008C0009093C5008093C40088E18093C10086E0C6
:1008D0008093C20008959091C00095FFFCCF809353
:1008E000C6000895CF93DF93EC0103C021960E94C8
:1008F0006B0488818111FACFDF91CF910895CF9356
:10090000DF93CDB7DEB761970FB6F894DEBF0FBEA9
:10091000CDBF462F50E0BE016F5F7F4F0E9405069E
:10092000CE0101960E94720461960FB6F894DEBF64
:100930000FBECDBFDF91CF910895CF93DF93FC0120
:1009400003C00E946B04FE01EF0121968491811186
:10095000F8CFDF91CF9108950E94B3046894B1114C
:100960000C94420508950E94270588F09F5798F03F
:10097000B92F9927B751B0F0E1F0660F771F881FA4
:10098000991F1AF0BA95C9F714C0B13091F00E94BE
:100990004105B1E008950C944105672F782F882711
:1009A000B85F39F0B93FCCF3869577956795B395E5
:1009B000D9F73EF490958095709561957F4F8F4F54
:1009C0009F4F0895E89409C097FB3EF49095809559
:1009D000709561957F4F8F4F9F4F9923A9F0F92F05
:1009E00096E9BB279395F695879577956795B79583
:1009F000F111F8CFFAF4BB0F11F460FF1BC06F5F69
:100A00007F4F8F4F9F4F16C0882311F096E911C07A
:100A1000772321F09EE8872F762F05C0662371F09B
:100A200096E8862F70E060E02AF09A95660F771FAF
:100A3000881FDAF7880F9695879597F9089557FDDF
:100A40009058440F551F59F05F3F71F04795880F3C
:100A500097FB991F61F09F3F79F0879508951216D3
:100A600013061406551FF2CF4695F1DF08C016167F
:100A700017061806991FF1CF869571056105089430
:100A80000895E894BB2766277727CB0197F9089547
:100A90000E945B050C94CC050E94BE0538F00E94B4
:100AA000C50520F0952311F00C94B5050C94BB05F9
:100AB00011240C9442050E941F0570F3959FC1F309
:100AC000950F50E0551F629FF001729FBB27F00DFC
:100AD000B11D639FAA27F00DB11DAA1F649F662751
:100AE000B00DA11D661F829F2227B00DA11D621FA0
:100AF000739FB00DA11D621F839FA00D611D221F5A
:100B0000749F3327A00D611D231F849F600D211D3D
:100B1000822F762F6A2F11249F5750409AF0F1F0C0
:100B200088234AF0EE0FFF1FBB1F661F771F881F29
:100B300091505040A9F79E3F510580F00C94B505A7
:100B40000C9442055F3FE4F3983ED4F38695779585
:100B50006795B795F795E7959F5FC1F7FE2B880FCF
:100B6000911D9695879597F9089597F99F6780E865
:100B700070E060E008959FEF80EC089500240A94EF
:100B80001616170618060906089500240A94121668
:100B90001306140605060895092E0394000C11F49B
:100BA000882352F0BB0F40F4BF2B11F460FF04C048
:100BB0006F5F7F4F8F4F9F4F089597FB072E16F45F
:100BC000009407D077FD09D00E94F10507FC05D0FD
:100BD0003EF4909581959F4F0895709561957F4F54
:100BE0000895AA1BBB1B51E107C0AA1FBB1FA61774
:100BF000B70710F0A61BB70B881F991F5A95A9F7C6
:100C000080959095BC01CD0108954532510520F4A1
:100C1000423010F00C941006FB011082CB010895B5
:100C2000BB274A3031F4992322F4BDE29095819597
:100C30009F4F0C941C06BB27FB015527AA27880F42
:100C4000991FAA1FA41710F0A41B83955051B9F740
:100C5000A05DAA3308F0A95DA193009779F7B111BF
:100C6000B1931192CB010C943506DC01FC01672F86
:100C700071917723E1F7329704C07C916D93708373
:0E0C80006291AE17BF07C8F30895F894FFCF36
:100C8E00013D3D3D3D3D3D3D3D3D3D3D3D3D3D3DC2
:100C9E003D3D3D3D3D3D3D3D3D3D3D3D3D3D3D5261
:100CAE004541442046524F4D20454550524F4D3DF3
:100CBE003D3D3D3D3D3D3D3D3D3D3D3D3D3D3D3D56
:100CCE003D3D3D3D3D3D3D3D3D3D3D3D3D0A0009EA
:100CDE002020202020202020202020202020202006
:100CEE00204D6561737572656D656E7473206576E2
:100CFE00657279203130206D696E757465732100CF
:100D0E003D3D3D3D3D3D3D3D3D3D3D3D3D3D3D3D05
:100D1E003D3D3D3D3D3D3D3D3D3D3D3D3D3D3D3DF5
:100D2E003D3D3D3D3D3D3D3D3D3D3D3D3D3D3D3DE5
:100D3E003D3D3D3D3D3D3D3D3D3D3D3D3D3D3D3DD5
:100D4E003D3D3D3D3D3D3D3D3D3D3D3D0A006E0041
:100D5E0048756D6964697479205B255D0054656D15
:100D6E007065726174757265205BB05D00524149A9
:100D7E004E5F564F4C54414745205B565D002E004A
:100D8E004C494748545F564F4C54414745205B569B
:100D9E005D00506F6D6961722077696C676F746E5C
:100DAE006F7363692C2074656D70657261747572F2
:100DBE0079206F72617A206E6174657A656E6961F1
:100DCE002073776961746C613A20005241494E5F1D
:100DDE0044524F50535F41444331203D2000202068
:100DEE00202020202020200A005241494E5F4452EC
:100DFE004F50535F564F4C54414745203D200056AF
:100E0E000A004C494748545F494E54454E53495485
:100E1E00595F41444332203D20004C494748545FBE
:100E2E00494E54454E534954595F564F4C544147C1
:100E3E0045203D20004572726F720048756D6964E1
:100E4E00697479203D2000250A0054656D70657225
:0E0E5E006174757265203D2000430A0A000091
:00000001FF
