:100000000C9468000C9485000C9485000C94850079
:100010000C9485000C9485000C9485000C9485004C
:100020000C9485000C9485000C9485000C941902A6
:100030000C9485000C9485000C9485000C9485002C
:100040000C9485000C9485000C9485000C9485001C
:100050000C9485000C9485000C9485000C9485000C
:100060000C9485000C9485000C9485000C948500FC
:100070000C9485000C9485000C9485000C948500EC
:100080000C9485000C9485000C9485000C948500DC
:100090000C9485000C9485000C9485000C948500CC
:1000A0000C9485000C9485000C9485000C948500BC
:1000B0000C9485001B5B6D001B5B3F323568001B99
:1000C0005B3F32356C001B5B3B48001B5B324A00D8
:1000D00011241FBECFEFD8E0DEBFCDBF12E0A0E0FD
:1000E000B1E0E4E9FCE002C005900D92AC3DB1073F
:1000F000D9F722E0ACEDB2E001C01D92AF3EB207ED
:10010000E1F70E943C020C9448060C940000EAE7D8
:10011000F0E0808180688083808187608083ECE765
:10012000F0E08081806480830895ECE7F0E09081C6
:10013000987F892B8083EAE7F0E080818064808368
:1001400080917A0086FDFCCF8091780090917900B3
:1001500008958AB180648AB98BB18F7B8BB92FEFF8
:1001600089EF90E0215080409040E1F700C000000E
:100170008BB180648BB908958AB18F7B8AB94E990F
:10018000FECF4E9BFECF4E99FECF089520E030E08B
:1001900080E011C04E9BFECF90EA9A95F1F74E9BFE
:1001A00005C090E0880F991F816001C0880F4E99AB
:1001B000FECF2F5F3F4F2830310564F30895F89448
:1001C000F999FECF92BD81BD60BD8FB384608FBBB6
:1001D0008FB382608FBB78940895F894F999FECF1D
:1001E00092BD81BD8FB381608FBB80B508950F93A1
:1001F0001F93CF93DF938B01FB016081EC01CC0F48
:10020000DD1FCC0FDD1FCC0FDD1FCE010E94DF00F4
:10021000F8016181CE0101960E94DF00F801628140
:10022000CE0102960E94DF00F8016381CE010396A1
:100230000E94DF00F8016481CE0104960E94DF0075
:10024000F8016581CE0105960E94DF00F801668104
:10025000CE0106960E94DF00F8016781CE01079665
:100260000E94DF00DF91CF911F910F910895CF93EE
:10027000DF93EC0161E089E00E94310440E067E037
:1002800081E00E94F20381E091E00E94750461E048
:100290008AE00E9431048FE491E00E94750461E0DD
:1002A0008BE00E94310480E891E00E94750461E0D7
:1002B0008CE00E9431048EEC91E00E9475048091E4
:1002C000000161E0845F0E943104809100016AE0D6
:1002D00090E00E94820465E08CE00E94310440E0DE
:1002E00064E081E00E94F20380ED91E00E947504D9
:1002F0008091000165E0845F0E943104CC0FDD1F16
:10030000CC0FDD1FCC0FDD1FCE010E94ED006AE097
:1003100090E00E9482048EE20E946E04CE0101965B
:100320000E94ED006AE090E00E94820464E18CE0AB
:100330000E94310440E061E081E00E94F2038DED13
:1003400091E00E9475048091000164E1845F0E9445
:100350003104CE0102960E94ED006AE090E00E9416
:1003600082048EE20E946E04CE0103960E94ED008C
:100370006AE090E00E94820468E28CE00E9431040E
:1003800040E065E081E00E94F2038DEE91E00E9482
:1003900075048091000168E2845F0E943104CE01FF
:1003A00004960E94ED006AE090E00E9482048EEFC5
:1003B00091E00E947504CE0105960E94ED006AE06E
:1003C00090E00E9482046CE38CE00E94310440E0E3
:1003D00062E081E00E94F20380E092E00E947504F6
:1003E000809100016CE3845F0E943104CE01069687
:1003F0000E94ED006AE090E00E9482048EEF91E09E
:100400000E947504CE0107960E94ED006AE090E01C
:100410000E948204809100018F5F809300018A30E6
:1004200029F481E0809300010E94DF03DF91CF91E6
:1004300008951F920F920FB60F9211248F939F93DE
:100440008091DE029091DF0201969093DF0280930B
:10045000DE02059751F481E090E09093DD028093F5
:10046000DC021092DF021092DE029F918F910F90BA
:100470000FBE0F901F901895F89487E690E00E94A9
:1004800063040E9487000E944E0480E00E94DF0304
:1004900082E192E00E9475042FEF87EA91E62150F5
:1004A00080409040E1F700C0000081E00E94DF033F
:1004B00087B18B7F87B984B1806284B9789481E0F9
:1004C0000E949500BC0180E090E00E94E50420E0DD
:1004D00030E040EA50E40E944B0520E030E040E884
:1004E0005AE30E944B0520E030E048EC52E40E94C1
:1004F0004B052B013C010E94AF04DC01CB0164E6FB
:1005000070E00E94E005A62E872EB82E992EC2EE2E
:10051000D2E06C838D8382E00E949500BC0180E074
:1005200090E00E94E50420E030E040EA50E40E94C0
:100530004B0520E030E040E85AE30E944B0520E004
:1005400030E048EC52E40E944B056B017C010E94B4
:10055000AF04DC01CB0164E670E00E94E005062FE9
:10056000372E182F292E6E838F832FEF85EA9EE07A
:10057000215080409040E1F700C000000E94A90097
:100580000E94BC000E94C6008093EB020E94C6003D
:100590008093EA020E94C6008093ED020E94C6008A
:1005A0008093EE020E94C6008093EC028091EE02DE
:1005B0008B838091ED028A838091EB028883809106
:1005C000EA028983F8948091DC029091DD02019720
:1005D000A9F495B180E2892785B9BE018091E00236
:1005E0009091E1020E94F7008091E0029091E10277
:1005F0000E9437011092DD021092DC027894F89488
:1006000061E081E00E94310440E063E081E00E940B
:10061000F2038BE492E00E947504C301B2010E94D0
:10062000B604DC01CB016AE00E9482048EE592E010
:100630000E94750461E082E00E94310485E00E941E
:100640001D0489E692E00E9475046AE08A2D982DC7
:100650000E9482048EEF91E00E9475046AE08B2D67
:10066000992D0E9482046BE182E00E9431048FE7A1
:1006700092E00E94750461E083E00E94310440E052
:1006800066E081E00E94F20382E892E00E94750435
:10069000C701B6010E94B604DC01CB016AE00E94EA
:1006A00082048EE592E00E94750461E084E00E947D
:1006B000310482E00E941D048AE992E00E947504E0
:1006C0006AE0802F932D0E9482048EEF91E00E94B9
:1006D00075046AE0812F922D0E94820460E284E01A
:1006E0000E9431048FE792E00E9475042091EB0292
:1006F0008091EA0290E0820F911D2091ED02820F1D
:10070000911D2091EE02820F911D2091EC0230E0AC
:100710008217930729F085EB92E00E94750441C08F
:1007200061E085E00E94310484E00E941D048BEBAF
:1007300092E00E9475048091EB026AE090E00E94D2
:1007400082048EEF91E00E9475048091EA026AE0D3
:1007500090E00E94820487EC92E00E94750461E0C0
:1007600086E00E94310481E00E941D048AEC92E040
:100770000E9475048091ED026AE090E00E9482047C
:100780008EEF91E00E9475048091EE026AE090E0A5
:100790000E94820480EB0E946E0489ED92E00E9428
:1007A000750478948CCE882329F08FEB90E00E941A
:1007B000A004089588EB90E00E94A0040895CF93D0
:1007C000C82F84EB90E00E94A0048C2F0E94D303DA
:1007D0008BEC90E00E94A00486EC90E00E94A004C4
:1007E000CF9108951F93CF93DF93182FD62FC42F47
:1007F0008BE10E946E048BE50E946E0480E3810F02
:100800000E946E048BE30E946E0483E30E946E04D8
:1008100080E38D0F0E946E048BE30E946E0484E3DC
:100820000E946E0480E38C0F0E946E048DE60E948D
:100830006E04DF91CF911F910895CF93C82F8BE164
:100840000E946E048BE50E946E0483E30E946E0496
:1008500080E38C0F0E946E048DE60E946E04CF919F
:100860000895CF93DF93D82FC62F8BE10E946E049B
:100870008BE50E946E046AE08D2F90E00E94820456
:100880008BE30E946E046AE08C2F90E00E94820449
:1008900088E40E946E04DF91CF910895E1E8F0E0D2
:1008A00080818560808380818860808389E09DE38A
:1008B0009093890080938800EFE6F0E08081826069
:1008C0008083789408959093C5008093C40088E154
:1008D0008093C10086E08093C20008959091C0008B
:1008E00095FFFCCF8093C6000895CF93DF93EC0172
:1008F00003C021960E946E0488818111FACFDF9196
:10090000CF910895CF93DF93CDB7DEB761970FB640
:10091000F894DEBF0FBECDBF462F50E0BE016F5F23
:100920007F4F0E940806CE0101960E9475046196D1
:100930000FB6F894DEBF0FBECDBFDF91CF91089503
:10094000CF93DF93FC0103C00E946E04FE01EF0110
:10095000219684918111F8CFDF91CF9108950E9463
:10096000B6046894B1110C94450508950E942A05B7
:1009700088F09F5798F0B92F9927B751B0F0E1F060
:10098000660F771F881F991F1AF0BA95C9F714C010
:10099000B13091F00E944405B1E008950C944405F3
:1009A000672F782F8827B85F39F0B93FCCF3869549
:1009B00077956795B395D9F73EF4909580957095A6
:1009C00061957F4F8F4F9F4F0895E89409C097FB23
:1009D0003EF490958095709561957F4F8F4F9F4F16
:1009E0009923A9F0F92F96E9BB279395F69587955A
:1009F00077956795B795F111F8CFFAF4BB0F11F41D
:100A000060FF1BC06F5F7F4F8F4F9F4F16C08823C3
:100A100011F096E911C0772321F09EE8872F762FF9
:100A200005C0662371F096E8862F70E060E02AF03A
:100A30009A95660F771F881FDAF7880F9695879526
:100A400097F9089557FD9058440F551F59F05F3F8F
:100A500071F04795880F97FB991F61F09F3F79F0E0
:100A600087950895121613061406551FF2CF469562
:100A7000F1DF08C0161617061806991FF1CF8695E4
:100A80007105610508940895E894BB2766277727C8
:100A9000CB0197F908950E945E050C94CF050E9442
:100AA000C10538F00E94C80520F0952311F00C9480
:100AB000B8050C94BE0511240C9445050E9422052E
:100AC00070F3959FC1F3950F50E0551F629FF001A1
:100AD000729FBB27F00DB11D639FAA27F00DB11DBA
:100AE000AA1F649F6627B00DA11D661F829F222743
:100AF000B00DA11D621F739FB00DA11D621F839FCA
:100B0000A00D611D221F749F3327A00D611D231F9F
:100B1000849F600D211D822F762F6A2F11249F57ED
:100B200050409AF0F1F088234AF0EE0FFF1FBB1FF0
:100B3000661F771F881F91505040A9F79E3F5105AF
:100B400080F00C94B8050C9445055F3FE4F3983EA3
:100B5000D4F3869577956795B795F795E7959F5F59
:100B6000C1F7FE2B880F911D9695879597F90895EB
:100B700097F99F6780E870E060E008959FEF80EC50
:100B8000089500240A9416161706180609060895F3
:100B900000240A9412161306140605060895092E59
:100BA0000394000C11F4882352F0BB0F40F4BF2BC8
:100BB00011F460FF04C06F5F7F4F8F4F9F4F089508
:100BC00097FB072E16F4009407D077FD09D00E94FA
:100BD000F40507FC05D03EF4909581959F4F08954C
:100BE000709561957F4F0895AA1BBB1B51E107C00B
:100BF000AA1FBB1FA617B70710F0A61BB70B881FAD
:100C0000991F5A95A9F780959095BC01CD0108953B
:100C10004532510520F4423010F00C941306FB01CC
:100C20001082CB010895BB274A3031F4992322F476
:100C3000BDE2909581959F4F0C941F06BB27FB0149
:100C40005527AA27880F991FAA1FA41710F0A41BC5
:100C500083955051B9F7A05DAA3308F0A95DA1931F
:100C6000009779F7B111B1931192CB010C9438062A
:100C7000DC01FC01672F71917723E1F7329704C003
:100C80007C916D9370836291AE17BF07C8F308958E
:040C9000F894FFCF06
:100C9400013D3D3D3D3D3D3D3D3D3D3D3D3D3D3DBC
:100CA4003D3D3D3D3D3D3D3D3D3D3D3D3D3D3D525B
:100CB4004541442046524F4D20454550524F4D3DED
:100CC4003D3D3D3D3D3D3D3D3D3D3D3D3D3D3D3D50
:100CD4003D3D3D3D3D3D3D3D3D3D3D3D3D0A0009E4
:100CE4002020202020202020202020202020202000
:100CF400204D6561737572656D656E7473206576DC
:100D0400657279203130206D696E757465732100C8
:100D14003D3D3D3D3D3D3D3D3D3D3D3D3D3D3D3DFF
:100D24003D3D3D3D3D3D3D3D3D3D3D3D3D3D3D3DEF
:100D34003D3D3D3D3D3D3D3D3D3D3D3D3D3D3D3DDF
:100D44003D3D3D3D3D3D3D3D3D3D3D3D3D3D3D3DCF
:100D54003D3D3D3D3D3D3D3D3D3D3D3D0A006E003B
:100D640048756D6964697479205B255D0054656D0F
:100D74007065726174757265205BB05D00524149A3
:100D84004E5F564F4C54414745205B565D002E0044
:100D94004C494748545F564F4C54414745205B5695
:100DA4005D00506F6D6961722077696C676F746E56
:100DB4006F7363692C2074656D70657261747572EC
:100DC40079206F72617A206E6174657A656E6961EB
:100DD4002073776961746C613A20005241494E5F17
:100DE40044524F50535F41444331203D2000202062
:100DF400202020202020200A005241494E5F4452E6
:100E04004F50535F564F4C54414745203D200056A8
:100E14000A004C494748545F494E54454E5349547F
:100E2400595F41444332203D20004C494748545FB8
:100E3400494E54454E534954595F564F4C544147BB
:100E440045203D20004572726F720048756D6964DB
:100E5400697479203D2000250A0054656D7065721F
:0C0E64006174757265203D2000430A0097
:00000001FF
